{
  "address": "0x10c36E47ccCADddA24E6A6d390315fCEC1a64465",
  "abi": [
    {
      "inputs": [],
      "stateMutability": "nonpayable",
      "type": "constructor"
    },
    {
      "inputs": [
        {
          "internalType": "address",
          "name": "target",
          "type": "address"
        }
      ],
      "name": "AddressEmptyCode",
      "type": "error"
    },
    {
      "inputs": [
        {
          "internalType": "address",
          "name": "implementation",
          "type": "address"
        }
      ],
      "name": "ERC1967InvalidImplementation",
      "type": "error"
    },
    {
      "inputs": [],
      "name": "ERC1967NonPayable",
      "type": "error"
    },
    {
      "inputs": [],
      "name": "FailedInnerCall",
      "type": "error"
    },
    {
      "inputs": [],
      "name": "InvalidInitialization",
      "type": "error"
    },
    {
      "inputs": [
        {
          "internalType": "address[]",
          "name": "receivers",
          "type": "address[]"
        },
        {
          "internalType": "uint256[]",
          "name": "amounts",
          "type": "uint256[]"
        }
      ],
      "name": "MismatchedLengths",
      "type": "error"
    },
    {
      "inputs": [],
      "name": "NotInitializing",
      "type": "error"
    },
    {
      "inputs": [
        {
          "internalType": "address",
          "name": "attemptedSender",
          "type": "address"
        },
        {
          "internalType": "address",
          "name": "sender",
          "type": "address"
        }
      ],
      "name": "OnlySender",
      "type": "error"
    },
    {
      "inputs": [
        {
          "internalType": "address",
          "name": "owner",
          "type": "address"
        }
      ],
      "name": "OwnableInvalidOwner",
      "type": "error"
    },
    {
      "inputs": [
        {
          "internalType": "address",
          "name": "account",
          "type": "address"
        }
      ],
      "name": "OwnableUnauthorizedAccount",
      "type": "error"
    },
    {
      "inputs": [],
      "name": "UUPSUnauthorizedCallContext",
      "type": "error"
    },
    {
      "inputs": [
        {
          "internalType": "bytes32",
          "name": "slot",
          "type": "bytes32"
        }
      ],
      "name": "UUPSUnsupportedProxiableUUID",
      "type": "error"
    },
    {
      "inputs": [],
      "name": "ZeroAddress",
      "type": "error"
    },
    {
      "anonymous": false,
      "inputs": [
        {
          "indexed": false,
          "internalType": "address[]",
          "name": "receivers",
          "type": "address[]"
        },
        {
          "indexed": false,
          "internalType": "uint256[]",
          "name": "amounts",
          "type": "uint256[]"
        }
      ],
      "name": "BatchSend",
      "type": "event"
    },
    {
      "anonymous": false,
      "inputs": [
        {
          "indexed": false,
          "internalType": "uint64",
          "name": "version",
          "type": "uint64"
        }
      ],
      "name": "Initialized",
      "type": "event"
    },
    {
      "anonymous": false,
      "inputs": [
        {
          "indexed": true,
          "internalType": "address",
          "name": "previousOwner",
          "type": "address"
        },
        {
          "indexed": true,
          "internalType": "address",
          "name": "newOwner",
          "type": "address"
        }
      ],
      "name": "OwnershipTransferStarted",
      "type": "event"
    },
    {
      "anonymous": false,
      "inputs": [
        {
          "indexed": true,
          "internalType": "address",
          "name": "previousOwner",
          "type": "address"
        },
        {
          "indexed": true,
          "internalType": "address",
          "name": "newOwner",
          "type": "address"
        }
      ],
      "name": "OwnershipTransferred",
      "type": "event"
    },
    {
      "anonymous": false,
      "inputs": [
        {
          "indexed": true,
          "internalType": "address",
          "name": "implementation",
          "type": "address"
        }
      ],
      "name": "Upgraded",
      "type": "event"
    },
    {
      "inputs": [],
      "name": "UPGRADE_INTERFACE_VERSION",
      "outputs": [
        {
          "internalType": "string",
          "name": "",
          "type": "string"
        }
      ],
      "stateMutability": "view",
      "type": "function"
    },
    {
      "inputs": [],
      "name": "acceptOwnership",
      "outputs": [],
      "stateMutability": "nonpayable",
      "type": "function"
    },
    {
      "inputs": [
        {
          "internalType": "address[]",
          "name": "_receivers",
          "type": "address[]"
        },
        {
          "internalType": "uint256[]",
          "name": "_amounts",
          "type": "uint256[]"
        }
      ],
      "name": "batchSend",
      "outputs": [],
      "stateMutability": "nonpayable",
      "type": "function"
    },
    {
      "inputs": [
        {
          "internalType": "contract IERC20",
          "name": "_token",
          "type": "address"
        },
        {
          "internalType": "address",
          "name": "_owner",
          "type": "address"
        },
        {
          "internalType": "address",
          "name": "_sender",
          "type": "address"
        }
      ],
      "name": "initialize",
      "outputs": [],
      "stateMutability": "nonpayable",
      "type": "function"
    },
    {
      "inputs": [],
      "name": "owner",
      "outputs": [
        {
          "internalType": "address",
          "name": "",
          "type": "address"
        }
      ],
      "stateMutability": "view",
      "type": "function"
    },
    {
      "inputs": [],
      "name": "pendingOwner",
      "outputs": [
        {
          "internalType": "address",
          "name": "",
          "type": "address"
        }
      ],
      "stateMutability": "view",
      "type": "function"
    },
    {
      "inputs": [],
      "name": "proxiableUUID",
      "outputs": [
        {
          "internalType": "bytes32",
          "name": "",
          "type": "bytes32"
        }
      ],
      "stateMutability": "view",
      "type": "function"
    },
    {
      "inputs": [],
      "name": "renounceOwnership",
      "outputs": [],
      "stateMutability": "nonpayable",
      "type": "function"
    },
    {
      "inputs": [
        {
          "internalType": "address",
          "name": "_sender",
          "type": "address"
        }
      ],
      "name": "setSender",
      "outputs": [],
      "stateMutability": "nonpayable",
      "type": "function"
    },
    {
      "inputs": [],
      "name": "token",
      "outputs": [
        {
          "internalType": "contract IERC20",
          "name": "",
          "type": "address"
        }
      ],
      "stateMutability": "view",
      "type": "function"
    },
    {
      "inputs": [
        {
          "internalType": "address",
          "name": "newOwner",
          "type": "address"
        }
      ],
      "name": "transferOwnership",
      "outputs": [],
      "stateMutability": "nonpayable",
      "type": "function"
    },
    {
      "inputs": [
        {
          "internalType": "address",
          "name": "newImplementation",
          "type": "address"
        },
        {
          "internalType": "bytes",
          "name": "data",
          "type": "bytes"
        }
      ],
      "name": "upgradeToAndCall",
      "outputs": [],
      "stateMutability": "payable",
      "type": "function"
    },
    {
      "inputs": [
        {
          "internalType": "address",
          "name": "_token",
          "type": "address"
        },
        {
          "internalType": "address",
          "name": "to",
          "type": "address"
        },
        {
          "internalType": "uint256",
          "name": "amount",
          "type": "uint256"
        }
      ],
      "name": "withdraw",
      "outputs": [],
      "stateMutability": "nonpayable",
      "type": "function"
    }
  ],
  "transactionHash": "0x1046afbabff9559f9b377a4066001eab9db8d943f7b7e2a3ea10d0756d97143e",
  "args": [],
  "numDeployments": 1,
  "solcInputHash": "ffea83ec7e7c2d6ee31ac0a4aaf0fb2a",
  "bytecode": "0x60a06040523073ffffffffffffffffffffffffffffffffffffffff1660809073ffffffffffffffffffffffffffffffffffffffff168152503480156200004457600080fd5b50620000556200005b60201b60201c565b620001cf565b60006200006d6200016560201b60201c565b90508060000160089054906101000a900460ff1615620000b9576040517ff92ee8a900000000000000000000000000000000000000000000000000000000815260040160405180910390fd5b67ffffffffffffffff80168160000160009054906101000a900467ffffffffffffffff1667ffffffffffffffff1614620001625767ffffffffffffffff8160000160006101000a81548167ffffffffffffffff021916908367ffffffffffffffff1602179055507fc7f505b2f371ae2175ee4913f4499e1f2633a7b5936321eed1cdaeb6115181d267ffffffffffffffff604051620001599190620001b2565b60405180910390a15b50565b60007ff0c57e16840df040f15088dc2f81fe391c3923bec73e23a9662efc9c229c6a00905090565b600067ffffffffffffffff82169050919050565b620001ac816200018d565b82525050565b6000602082019050620001c96000830184620001a1565b92915050565b608051611d83620001f960003960008181610adf01528181610b340152610cef0152611d836000f3fe6080604052600436106100c25760003560e01c8063ad3cb1cc1161007f578063d9caed1211610059578063d9caed121461020d578063e30c397814610236578063f2fde38b14610261578063fc0c546a1461028a576100c2565b8063ad3cb1cc14610190578063c0c53b8b146101bb578063ced32b0c146101e4576100c2565b80634f1ef286146100c757806352d1902d146100e3578063715018a61461010e57806379ba5097146101255780637a53bcfc1461013c5780638da5cb5b14610165575b600080fd5b6100e160048036038101906100dc91906114f4565b6102b5565b005b3480156100ef57600080fd5b506100f86102d4565b6040516101059190611569565b60405180910390f35b34801561011a57600080fd5b50610123610307565b005b34801561013157600080fd5b5061013a61031b565b005b34801561014857600080fd5b50610163600480360381019061015e919061163a565b6103aa565b005b34801561017157600080fd5b5061017a6105f4565b60405161018791906116ca565b60405180910390f35b34801561019c57600080fd5b506101a561062c565b6040516101b29190611764565b60405180910390f35b3480156101c757600080fd5b506101e260048036038101906101dd91906117c4565b610665565b005b3480156101f057600080fd5b5061020b60048036038101906102069190611817565b6108ed565b005b34801561021957600080fd5b50610234600480360381019061022f919061187a565b610939565b005b34801561024257600080fd5b5061024b6109c5565b60405161025891906116ca565b60405180910390f35b34801561026d57600080fd5b5061028860048036038101906102839190611817565b6109fd565b005b34801561029657600080fd5b5061029f610ab9565b6040516102ac919061192c565b60405180910390f35b6102bd610add565b6102c682610bc3565b6102d08282610bce565b5050565b60006102de610ced565b7f360894a13ba1a3210667c828492db98dca3e2076cc3735a920a3ca505d382bbc60001b905090565b61030f610d74565b6103196000610dfb565b565b6000610325610e3b565b90508073ffffffffffffffffffffffffffffffffffffffff166103466109c5565b73ffffffffffffffffffffffffffffffffffffffff161461039e57806040517f118cdaa700000000000000000000000000000000000000000000000000000000815260040161039591906116ca565b60405180910390fd5b6103a781610dfb565b50565b600160009054906101000a900473ffffffffffffffffffffffffffffffffffffffff1673ffffffffffffffffffffffffffffffffffffffff163373ffffffffffffffffffffffffffffffffffffffff16146104605733600160009054906101000a900473ffffffffffffffffffffffffffffffffffffffff166040517f9e066f32000000000000000000000000000000000000000000000000000000008152600401610457929190611947565b60405180910390fd5b8181905084849050146104b057838383836040517ff211f8600000000000000000000000000000000000000000000000000000000081526004016104a79493929190611aae565b60405180910390fd5b60005b848490508110156105b05760008054906101000a900473ffffffffffffffffffffffffffffffffffffffff1673ffffffffffffffffffffffffffffffffffffffff1663a9059cbb86868481811061050d5761050c611ae9565b5b90506020020160208101906105229190611817565b85858581811061053557610534611ae9565b5b905060200201356040518363ffffffff1660e01b8152600401610559929190611b27565b6020604051808303816000875af1158015610578573d6000803e3d6000fd5b505050506040513d601f19601f8201168201806040525081019061059c9190611b88565b5080806105a890611be4565b9150506104b3565b507ffd6f56b61174f0f5f4232e009bcf44cfcfbc193ddaffbac472b17c5e6584427d848484846040516105e69493929190611aae565b60405180910390a150505050565b6000806105ff610e43565b90508060000160009054906101000a900473ffffffffffffffffffffffffffffffffffffffff1691505090565b6040518060400160405280600581526020017f352e302e3000000000000000000000000000000000000000000000000000000081525081565b600061066f610e6b565b905060008160000160089054906101000a900460ff1615905060008260000160009054906101000a900467ffffffffffffffff1690506000808267ffffffffffffffff161480156106bd5750825b9050600060018367ffffffffffffffff161480156106f2575060003073ffffffffffffffffffffffffffffffffffffffff163b145b905081158015610700575080155b15610737576040517ff92ee8a900000000000000000000000000000000000000000000000000000000815260040160405180910390fd5b60018560000160006101000a81548167ffffffffffffffff021916908367ffffffffffffffff16021790555083156107875760018560000160086101000a81548160ff0219169083151502179055505b600073ffffffffffffffffffffffffffffffffffffffff168873ffffffffffffffffffffffffffffffffffffffff16036107ed576040517fd92e233d00000000000000000000000000000000000000000000000000000000815260040160405180910390fd5b876000806101000a81548173ffffffffffffffffffffffffffffffffffffffff021916908373ffffffffffffffffffffffffffffffffffffffff16021790555085600160006101000a81548173ffffffffffffffffffffffffffffffffffffffff021916908373ffffffffffffffffffffffffffffffffffffffff160217905550610876610e93565b61087e610e9d565b61088787610dfb565b83156108e35760008560000160086101000a81548160ff0219169083151502179055507fc7f505b2f371ae2175ee4913f4499e1f2633a7b5936321eed1cdaeb6115181d260016040516108da9190611c7b565b60405180910390a15b5050505050505050565b6108f5610d74565b80600160006101000a81548173ffffffffffffffffffffffffffffffffffffffff021916908373ffffffffffffffffffffffffffffffffffffffff16021790555050565b610941610d74565b8273ffffffffffffffffffffffffffffffffffffffff1663a9059cbb83836040518363ffffffff1660e01b815260040161097c929190611b27565b6020604051808303816000875af115801561099b573d6000803e3d6000fd5b505050506040513d601f19601f820116820180604052508101906109bf9190611b88565b50505050565b6000806109d0610ea7565b90508060000160009054906101000a900473ffffffffffffffffffffffffffffffffffffffff1691505090565b610a05610d74565b6000610a0f610ea7565b9050818160000160006101000a81548173ffffffffffffffffffffffffffffffffffffffff021916908373ffffffffffffffffffffffffffffffffffffffff1602179055508173ffffffffffffffffffffffffffffffffffffffff16610a736105f4565b73ffffffffffffffffffffffffffffffffffffffff167f38d16b8cac22d99fc7c124b9cd0de2d3fa1faef420bfe791d8c362d765e2270060405160405180910390a35050565b60008054906101000a900473ffffffffffffffffffffffffffffffffffffffff1681565b7f000000000000000000000000000000000000000000000000000000000000000073ffffffffffffffffffffffffffffffffffffffff163073ffffffffffffffffffffffffffffffffffffffff161480610b8a57507f000000000000000000000000000000000000000000000000000000000000000073ffffffffffffffffffffffffffffffffffffffff16610b71610ecf565b73ffffffffffffffffffffffffffffffffffffffff1614155b15610bc1576040517fe07c8dba00000000000000000000000000000000000000000000000000000000815260040160405180910390fd5b565b610bcb610d74565b50565b8173ffffffffffffffffffffffffffffffffffffffff166352d1902d6040518163ffffffff1660e01b8152600401602060405180830381865afa925050508015610c3657506040513d601f19601f82011682018060405250810190610c339190611cc2565b60015b610c7757816040517f4c9c8ce3000000000000000000000000000000000000000000000000000000008152600401610c6e91906116ca565b60405180910390fd5b7f360894a13ba1a3210667c828492db98dca3e2076cc3735a920a3ca505d382bbc60001b8114610cde57806040517faa1d49a4000000000000000000000000000000000000000000000000000000008152600401610cd59190611569565b60405180910390fd5b610ce88383610f26565b505050565b7f000000000000000000000000000000000000000000000000000000000000000073ffffffffffffffffffffffffffffffffffffffff163073ffffffffffffffffffffffffffffffffffffffff1614610d72576040517fe07c8dba00000000000000000000000000000000000000000000000000000000815260040160405180910390fd5b565b610d7c610e3b565b73ffffffffffffffffffffffffffffffffffffffff16610d9a6105f4565b73ffffffffffffffffffffffffffffffffffffffff1614610df957610dbd610e3b565b6040517f118cdaa7000000000000000000000000000000000000000000000000000000008152600401610df091906116ca565b60405180910390fd5b565b6000610e05610ea7565b90508060000160006101000a81549073ffffffffffffffffffffffffffffffffffffffff0219169055610e3782610f99565b5050565b600033905090565b60007f9016d09d72d40fdae2fd8ceac6b6234c7706214fd39c1cd1e609a0528c199300905090565b60007ff0c57e16840df040f15088dc2f81fe391c3923bec73e23a9662efc9c229c6a00905090565b610e9b611070565b565b610ea5611070565b565b60007f237e158222e3e6968b72b9db0d8043aacf074ad9f650f0d1606b4d82ee432c00905090565b6000610efd7f360894a13ba1a3210667c828492db98dca3e2076cc3735a920a3ca505d382bbc60001b6110b0565b60000160009054906101000a900473ffffffffffffffffffffffffffffffffffffffff16905090565b610f2f826110ba565b8173ffffffffffffffffffffffffffffffffffffffff167fbc7cd75a20ee27fd9adebab32041f755214dbc6bffa90cc0225b39da2e5c2d3b60405160405180910390a2600081511115610f8c57610f868282611187565b50610f95565b610f9461120b565b5b5050565b6000610fa3610e43565b905060008160000160009054906101000a900473ffffffffffffffffffffffffffffffffffffffff169050828260000160006101000a81548173ffffffffffffffffffffffffffffffffffffffff021916908373ffffffffffffffffffffffffffffffffffffffff1602179055508273ffffffffffffffffffffffffffffffffffffffff168173ffffffffffffffffffffffffffffffffffffffff167f8be0079c531659141344cd1fd0a4f28419497f9722a3daafe3b4186f6b6457e060405160405180910390a3505050565b611078611248565b6110ae576040517fd7e6bcf800000000000000000000000000000000000000000000000000000000815260040160405180910390fd5b565b6000819050919050565b60008173ffffffffffffffffffffffffffffffffffffffff163b0361111657806040517f4c9c8ce300000000000000000000000000000000000000000000000000000000815260040161110d91906116ca565b60405180910390fd5b806111437f360894a13ba1a3210667c828492db98dca3e2076cc3735a920a3ca505d382bbc60001b6110b0565b60000160006101000a81548173ffffffffffffffffffffffffffffffffffffffff021916908373ffffffffffffffffffffffffffffffffffffffff16021790555050565b60606000808473ffffffffffffffffffffffffffffffffffffffff16846040516111b19190611d36565b600060405180830381855af49150503d80600081146111ec576040519150601f19603f3d011682016040523d82523d6000602084013e6111f1565b606091505b5091509150611201858383611268565b9250505092915050565b6000341115611246576040517fb398979f00000000000000000000000000000000000000000000000000000000815260040160405180910390fd5b565b6000611252610e6b565b60000160089054906101000a900460ff16905090565b60608261127d57611278826112f7565b6112ef565b600082511480156112a5575060008473ffffffffffffffffffffffffffffffffffffffff163b145b156112e757836040517f9996b3150000000000000000000000000000000000000000000000000000000081526004016112de91906116ca565b60405180910390fd5b8190506112f0565b5b9392505050565b60008151111561130a5780518082602001fd5b6040517f1425ea4200000000000000000000000000000000000000000000000000000000815260040160405180910390fd5b6000604051905090565b600080fd5b600080fd5b600073ffffffffffffffffffffffffffffffffffffffff82169050919050565b600061137b82611350565b9050919050565b61138b81611370565b811461139657600080fd5b50565b6000813590506113a881611382565b92915050565b600080fd5b600080fd5b6000601f19601f8301169050919050565b7f4e487b7100000000000000000000000000000000000000000000000000000000600052604160045260246000fd5b611401826113b8565b810181811067ffffffffffffffff821117156114205761141f6113c9565b5b80604052505050565b600061143361133c565b905061143f82826113f8565b919050565b600067ffffffffffffffff82111561145f5761145e6113c9565b5b611468826113b8565b9050602081019050919050565b82818337600083830152505050565b600061149761149284611444565b611429565b9050828152602081018484840111156114b3576114b26113b3565b5b6114be848285611475565b509392505050565b600082601f8301126114db576114da6113ae565b5b81356114eb848260208601611484565b91505092915050565b6000806040838503121561150b5761150a611346565b5b600061151985828601611399565b925050602083013567ffffffffffffffff81111561153a5761153961134b565b5b611546858286016114c6565b9150509250929050565b6000819050919050565b61156381611550565b82525050565b600060208201905061157e600083018461155a565b92915050565b600080fd5b600080fd5b60008083601f8401126115a4576115a36113ae565b5b8235905067ffffffffffffffff8111156115c1576115c0611584565b5b6020830191508360208202830111156115dd576115dc611589565b5b9250929050565b60008083601f8401126115fa576115f96113ae565b5b8235905067ffffffffffffffff81111561161757611616611584565b5b60208301915083602082028301111561163357611632611589565b5b9250929050565b6000806000806040858703121561165457611653611346565b5b600085013567ffffffffffffffff8111156116725761167161134b565b5b61167e8782880161158e565b9450945050602085013567ffffffffffffffff8111156116a1576116a061134b565b5b6116ad878288016115e4565b925092505092959194509250565b6116c481611370565b82525050565b60006020820190506116df60008301846116bb565b92915050565b600081519050919050565b600082825260208201905092915050565b60005b8381101561171f578082015181840152602081019050611704565b60008484015250505050565b6000611736826116e5565b61174081856116f0565b9350611750818560208601611701565b611759816113b8565b840191505092915050565b6000602082019050818103600083015261177e818461172b565b905092915050565b600061179182611370565b9050919050565b6117a181611786565b81146117ac57600080fd5b50565b6000813590506117be81611798565b92915050565b6000806000606084860312156117dd576117dc611346565b5b60006117eb868287016117af565b93505060206117fc86828701611399565b925050604061180d86828701611399565b9150509250925092565b60006020828403121561182d5761182c611346565b5b600061183b84828501611399565b91505092915050565b6000819050919050565b61185781611844565b811461186257600080fd5b50565b6000813590506118748161184e565b92915050565b60008060006060848603121561189357611892611346565b5b60006118a186828701611399565b93505060206118b286828701611399565b92505060406118c386828701611865565b9150509250925092565b6000819050919050565b60006118f26118ed6118e884611350565b6118cd565b611350565b9050919050565b6000611904826118d7565b9050919050565b6000611916826118f9565b9050919050565b6119268161190b565b82525050565b6000602082019050611941600083018461191d565b92915050565b600060408201905061195c60008301856116bb565b61196960208301846116bb565b9392505050565b600082825260208201905092915050565b6000819050919050565b61199481611370565b82525050565b60006119a6838361198b565b60208301905092915050565b60006119c16020840184611399565b905092915050565b6000602082019050919050565b60006119e28385611970565b93506119ed82611981565b8060005b85811015611a2657611a0382846119b2565b611a0d888261199a565b9750611a18836119c9565b9250506001810190506119f1565b5085925050509392505050565b600082825260208201905092915050565b600080fd5b82818337505050565b6000611a5e8385611a33565b93507f07ffffffffffffffffffffffffffffffffffffffffffffffffffffffffffffff831115611a9157611a90611a44565b5b602083029250611aa2838584611a49565b82840190509392505050565b60006040820190508181036000830152611ac98186886119d6565b90508181036020830152611ade818486611a52565b905095945050505050565b7f4e487b7100000000000000000000000000000000000000000000000000000000600052603260045260246000fd5b611b2181611844565b82525050565b6000604082019050611b3c60008301856116bb565b611b496020830184611b18565b9392505050565b60008115159050919050565b611b6581611b50565b8114611b7057600080fd5b50565b600081519050611b8281611b5c565b92915050565b600060208284031215611b9e57611b9d611346565b5b6000611bac84828501611b73565b91505092915050565b7f4e487b7100000000000000000000000000000000000000000000000000000000600052601160045260246000fd5b6000611bef82611844565b91507fffffffffffffffffffffffffffffffffffffffffffffffffffffffffffffffff8203611c2157611c20611bb5565b5b600182019050919050565b6000819050919050565b600067ffffffffffffffff82169050919050565b6000611c65611c60611c5b84611c2c565b6118cd565b611c36565b9050919050565b611c7581611c4a565b82525050565b6000602082019050611c906000830184611c6c565b92915050565b611c9f81611550565b8114611caa57600080fd5b50565b600081519050611cbc81611c96565b92915050565b600060208284031215611cd857611cd7611346565b5b6000611ce684828501611cad565b91505092915050565b600081519050919050565b600081905092915050565b6000611d1082611cef565b611d1a8185611cfa565b9350611d2a818560208601611701565b80840191505092915050565b6000611d428284611d05565b91508190509291505056fea2646970667358221220df4f38617eff2a6ae10bd633eae1f59f4dc5735aa6ca8dd873ca725ca4f2a56064736f6c63430008140033",
  "devdoc": {
    "errors": {
      "AddressEmptyCode(address)": [
        {
          "details": "There's no code at `target` (it is not a contract)."
        }
      ],
      "ERC1967InvalidImplementation(address)": [
        {
          "details": "The `implementation` of the proxy is invalid."
        }
      ],
      "ERC1967NonPayable()": [
        {
          "details": "An upgrade function sees `msg.value > 0` that may be lost."
        }
      ],
      "FailedInnerCall()": [
        {
          "details": "A call to an address target failed. The target may have reverted."
        }
      ],
      "InvalidInitialization()": [
        {
          "details": "The contract is already initialized."
        }
      ],
      "NotInitializing()": [
        {
          "details": "The contract is not initializing."
        }
      ],
      "OwnableInvalidOwner(address)": [
        {
          "details": "The owner is not a valid owner account. (eg. `address(0)`)"
        }
      ],
      "OwnableUnauthorizedAccount(address)": [
        {
          "details": "The caller account is not authorized to perform an operation."
        }
      ],
      "UUPSUnauthorizedCallContext()": [
        {
          "details": "The call is from an unauthorized context."
        }
      ],
      "UUPSUnsupportedProxiableUUID(bytes32)": [
        {
          "details": "The storage `slot` is unsupported as a UUID."
        }
      ]
    },
    "events": {
      "Initialized(uint64)": {
        "details": "Triggered when the contract has been initialized or reinitialized."
      },
      "Upgraded(address)": {
        "details": "Emitted when the implementation is upgraded."
      }
    },
    "kind": "dev",
    "methods": {
      "acceptOwnership()": {
        "details": "The new owner accepts the ownership transfer."
      },
      "owner()": {
        "details": "Returns the address of the current owner."
      },
      "pendingOwner()": {
        "details": "Returns the address of the pending owner."
      },
      "proxiableUUID()": {
        "details": "Implementation of the ERC1822 {proxiableUUID} function. This returns the storage slot used by the implementation. It is used to validate the implementation's compatibility when performing an upgrade. IMPORTANT: A proxy pointing at a proxiable contract should not be considered proxiable itself, because this risks bricking a proxy that upgrades to it, by delegating to itself until out of gas. Thus it is critical that this function revert if invoked through a proxy. This is guaranteed by the `notDelegated` modifier."
      },
      "renounceOwnership()": {
        "details": "Leaves the contract without owner. It will not be possible to call `onlyOwner` functions. Can only be called by the current owner. NOTE: Renouncing ownership will leave the contract without an owner, thereby disabling any functionality that is only available to the owner."
      },
      "transferOwnership(address)": {
        "details": "Starts the ownership transfer of the contract to a new account. Replaces the pending transfer if there is one. Can only be called by the current owner."
      },
      "upgradeToAndCall(address,bytes)": {
        "custom:oz-upgrades-unsafe-allow-reachable": "delegatecall",
        "details": "Upgrade the implementation of the proxy to `newImplementation`, and subsequently execute the function call encoded in `data`. Calls {_authorizeUpgrade}. Emits an {Upgraded} event."
      }
    },
    "version": 1
  },
  "userdoc": {
    "kind": "user",
    "methods": {},
    "version": 1
  },
  "storageLayout": {
    "storage": [
      {
        "astId": 2410,
        "contract": "contracts/TokenDistributor.sol:TokenDistributor",
        "label": "token",
        "offset": 0,
        "slot": "0",
        "type": "t_contract(IERC20)1940"
      },
      {
        "astId": 2412,
        "contract": "contracts/TokenDistributor.sol:TokenDistributor",
        "label": "sender",
        "offset": 0,
        "slot": "1",
        "type": "t_address"
      },
      {
        "astId": 2416,
        "contract": "contracts/TokenDistributor.sol:TokenDistributor",
        "label": "__gap",
        "offset": 0,
        "slot": "2",
        "type": "t_array(t_uint256)50_storage"
      }
    ],
    "types": {
      "t_address": {
        "encoding": "inplace",
        "label": "address",
        "numberOfBytes": "20"
      },
      "t_array(t_uint256)50_storage": {
        "base": "t_uint256",
        "encoding": "inplace",
        "label": "uint256[50]",
        "numberOfBytes": "1600"
      },
      "t_contract(IERC20)1940": {
        "encoding": "inplace",
        "label": "contract IERC20",
        "numberOfBytes": "20"
      },
      "t_uint256": {
        "encoding": "inplace",
        "label": "uint256",
        "numberOfBytes": "32"
      }
    }
  }
}